{
  "_format": "hh-sol-artifact-1",
  "contractName": "ERC20MinterBurnerDecimals",
  "sourceName": "solidity/ERC20MinterBurnerDecimals.sol",
  "abi": [
    {
      "inputs": [
        {
          "internalType": "string",
          "name": "name",
          "type": "string"
        },
        {
          "internalType": "string",
          "name": "symbol",
          "type": "string"
        },
        {
          "internalType": "uint8",
          "name": "decimals_",
          "type": "uint8"
        },
        {
          "internalType": "address",
          "name": "initialOwner",
          "type": "address"
        },
        {
          "internalType": "address",
          "name": "mintAuthority",
          "type": "address"
        },
        {
          "internalType": "address",
          "name": "pauseAuthority",
          "type": "address"
        },
        {
          "internalType": "address",
          "name": "burnAuthority",
          "type": "address"
        }
      ],
      "stateMutability": "nonpayable",
      "type": "constructor"
    },
    {
      "anonymous": false,
      "inputs": [
        {
          "indexed": true,
          "internalType": "address",
          "name": "owner",
          "type": "address"
        },
        {
          "indexed": true,
          "internalType": "address",
          "name": "spender",
          "type": "address"
        },
        {
          "indexed": false,
          "internalType": "uint256",
          "name": "value",
          "type": "uint256"
        }
      ],
      "name": "Approval",
      "type": "event"
    },
    {
      "anonymous": false,
      "inputs": [
        {
          "indexed": false,
          "internalType": "address",
          "name": "account",
          "type": "address"
        }
      ],
      "name": "Paused",
      "type": "event"
    },
    {
      "anonymous": false,
      "inputs": [
        {
          "indexed": true,
          "internalType": "bytes32",
          "name": "role",
          "type": "bytes32"
        },
        {
          "indexed": true,
          "internalType": "bytes32",
          "name": "previousAdminRole",
          "type": "bytes32"
        },
        {
          "indexed": true,
          "internalType": "bytes32",
          "name": "newAdminRole",
          "type": "bytes32"
        }
      ],
      "name": "RoleAdminChanged",
      "type": "event"
    },
    {
      "anonymous": false,
      "inputs": [
        {
          "indexed": true,
          "internalType": "bytes32",
          "name": "role",
          "type": "bytes32"
        },
        {
          "indexed": true,
          "internalType": "address",
          "name": "account",
          "type": "address"
        },
        {
          "indexed": true,
          "internalType": "address",
          "name": "sender",
          "type": "address"
        }
      ],
      "name": "RoleGranted",
      "type": "event"
    },
    {
      "anonymous": false,
      "inputs": [
        {
          "indexed": true,
          "internalType": "bytes32",
          "name": "role",
          "type": "bytes32"
        },
        {
          "indexed": true,
          "internalType": "address",
          "name": "account",
          "type": "address"
        },
        {
          "indexed": true,
          "internalType": "address",
          "name": "sender",
          "type": "address"
        }
      ],
      "name": "RoleRevoked",
      "type": "event"
    },
    {
      "anonymous": false,
      "inputs": [
        {
          "indexed": true,
          "internalType": "address",
          "name": "from",
          "type": "address"
        },
        {
          "indexed": true,
          "internalType": "address",
          "name": "to",
          "type": "address"
        },
        {
          "indexed": false,
          "internalType": "uint256",
          "name": "value",
          "type": "uint256"
        }
      ],
      "name": "Transfer",
      "type": "event"
    },
    {
      "anonymous": false,
      "inputs": [
        {
          "indexed": false,
          "internalType": "address",
          "name": "account",
          "type": "address"
        }
      ],
      "name": "Unpaused",
      "type": "event"
    },
    {
      "inputs": [],
      "name": "BURNER_ROLE",
      "outputs": [
        {
          "internalType": "bytes32",
          "name": "",
          "type": "bytes32"
        }
      ],
      "stateMutability": "view",
      "type": "function"
    },
    {
      "inputs": [],
      "name": "DEFAULT_ADMIN_ROLE",
      "outputs": [
        {
          "internalType": "bytes32",
          "name": "",
          "type": "bytes32"
        }
      ],
      "stateMutability": "view",
      "type": "function"
    },
    {
      "inputs": [],
      "name": "MINTER_ROLE",
      "outputs": [
        {
          "internalType": "bytes32",
          "name": "",
          "type": "bytes32"
        }
      ],
      "stateMutability": "view",
      "type": "function"
    },
    {
      "inputs": [],
      "name": "PAUSER_ROLE",
      "outputs": [
        {
          "internalType": "bytes32",
          "name": "",
          "type": "bytes32"
        }
      ],
      "stateMutability": "view",
      "type": "function"
    },
    {
      "inputs": [
        {
          "internalType": "address",
          "name": "owner",
          "type": "address"
        },
        {
          "internalType": "address",
          "name": "spender",
          "type": "address"
        }
      ],
      "name": "allowance",
      "outputs": [
        {
          "internalType": "uint256",
          "name": "",
          "type": "uint256"
        }
      ],
      "stateMutability": "view",
      "type": "function"
    },
    {
      "inputs": [
        {
          "internalType": "address",
          "name": "spender",
          "type": "address"
        },
        {
          "internalType": "uint256",
          "name": "amount",
          "type": "uint256"
        }
      ],
      "name": "approve",
      "outputs": [
        {
          "internalType": "bool",
          "name": "",
          "type": "bool"
        }
      ],
      "stateMutability": "nonpayable",
      "type": "function"
    },
    {
      "inputs": [
        {
          "internalType": "address",
          "name": "account",
          "type": "address"
        }
      ],
      "name": "balanceOf",
      "outputs": [
        {
          "internalType": "uint256",
          "name": "",
          "type": "uint256"
        }
      ],
      "stateMutability": "view",
      "type": "function"
    },
    {
      "inputs": [
        {
          "internalType": "uint256",
          "name": "amount",
          "type": "uint256"
        }
      ],
      "name": "burn",
      "outputs": [],
      "stateMutability": "nonpayable",
      "type": "function"
    },
    {
      "inputs": [
        {
          "internalType": "address",
          "name": "from",
          "type": "address"
        },
        {
          "internalType": "uint256",
          "name": "amount",
          "type": "uint256"
        }
      ],
      "name": "burnCoins",
      "outputs": [],
      "stateMutability": "nonpayable",
      "type": "function"
    },
    {
      "inputs": [
        {
          "internalType": "address",
          "name": "account",
          "type": "address"
        },
        {
          "internalType": "uint256",
          "name": "amount",
          "type": "uint256"
        }
      ],
      "name": "burnFrom",
      "outputs": [],
      "stateMutability": "nonpayable",
      "type": "function"
    },
    {
      "inputs": [],
      "name": "decimals",
      "outputs": [
        {
          "internalType": "uint8",
          "name": "",
          "type": "uint8"
        }
      ],
      "stateMutability": "view",
      "type": "function"
    },
    {
      "inputs": [
        {
          "internalType": "address",
          "name": "spender",
          "type": "address"
        },
        {
          "internalType": "uint256",
          "name": "subtractedValue",
          "type": "uint256"
        }
      ],
      "name": "decreaseAllowance",
      "outputs": [
        {
          "internalType": "bool",
          "name": "",
          "type": "bool"
        }
      ],
      "stateMutability": "nonpayable",
      "type": "function"
    },
    {
      "inputs": [
        {
          "internalType": "bytes32",
          "name": "role",
          "type": "bytes32"
        }
      ],
      "name": "getRoleAdmin",
      "outputs": [
        {
          "internalType": "bytes32",
          "name": "",
          "type": "bytes32"
        }
      ],
      "stateMutability": "view",
      "type": "function"
    },
    {
      "inputs": [
        {
          "internalType": "bytes32",
          "name": "role",
          "type": "bytes32"
        },
        {
          "internalType": "uint256",
          "name": "index",
          "type": "uint256"
        }
      ],
      "name": "getRoleMember",
      "outputs": [
        {
          "internalType": "address",
          "name": "",
          "type": "address"
        }
      ],
      "stateMutability": "view",
      "type": "function"
    },
    {
      "inputs": [
        {
          "internalType": "bytes32",
          "name": "role",
          "type": "bytes32"
        }
      ],
      "name": "getRoleMemberCount",
      "outputs": [
        {
          "internalType": "uint256",
          "name": "",
          "type": "uint256"
        }
      ],
      "stateMutability": "view",
      "type": "function"
    },
    {
      "inputs": [
        {
          "internalType": "bytes32",
          "name": "role",
          "type": "bytes32"
        },
        {
          "internalType": "address",
          "name": "account",
          "type": "address"
        }
      ],
      "name": "grantRole",
      "outputs": [],
      "stateMutability": "nonpayable",
      "type": "function"
    },
    {
      "inputs": [
        {
          "internalType": "bytes32",
          "name": "role",
          "type": "bytes32"
        },
        {
          "internalType": "address",
          "name": "account",
          "type": "address"
        }
      ],
      "name": "hasRole",
      "outputs": [
        {
          "internalType": "bool",
          "name": "",
          "type": "bool"
        }
      ],
      "stateMutability": "view",
      "type": "function"
    },
    {
      "inputs": [
        {
          "internalType": "address",
          "name": "spender",
          "type": "address"
        },
        {
          "internalType": "uint256",
          "name": "addedValue",
          "type": "uint256"
        }
      ],
      "name": "increaseAllowance",
      "outputs": [
        {
          "internalType": "bool",
          "name": "",
          "type": "bool"
        }
      ],
      "stateMutability": "nonpayable",
      "type": "function"
    },
    {
      "inputs": [
        {
          "internalType": "address",
          "name": "to",
          "type": "address"
        },
        {
          "internalType": "uint256",
          "name": "amount",
          "type": "uint256"
        }
      ],
      "name": "mint",
      "outputs": [],
      "stateMutability": "nonpayable",
      "type": "function"
    },
    {
      "inputs": [],
      "name": "name",
      "outputs": [
        {
          "internalType": "string",
          "name": "",
          "type": "string"
        }
      ],
      "stateMutability": "view",
      "type": "function"
    },
    {
      "inputs": [],
      "name": "pause",
      "outputs": [],
      "stateMutability": "nonpayable",
      "type": "function"
    },
    {
      "inputs": [],
      "name": "paused",
      "outputs": [
        {
          "internalType": "bool",
          "name": "",
          "type": "bool"
        }
      ],
      "stateMutability": "view",
      "type": "function"
    },
    {
      "inputs": [
        {
          "internalType": "bytes32",
          "name": "role",
          "type": "bytes32"
        },
        {
          "internalType": "address",
          "name": "account",
          "type": "address"
        }
      ],
      "name": "renounceRole",
      "outputs": [],
      "stateMutability": "nonpayable",
      "type": "function"
    },
    {
      "inputs": [
        {
          "internalType": "bytes32",
          "name": "role",
          "type": "bytes32"
        },
        {
          "internalType": "address",
          "name": "account",
          "type": "address"
        }
      ],
      "name": "revokeRole",
      "outputs": [],
      "stateMutability": "nonpayable",
      "type": "function"
    },
    {
      "inputs": [
        {
          "internalType": "bytes4",
          "name": "interfaceId",
          "type": "bytes4"
        }
      ],
      "name": "supportsInterface",
      "outputs": [
        {
          "internalType": "bool",
          "name": "",
          "type": "bool"
        }
      ],
      "stateMutability": "view",
      "type": "function"
    },
    {
      "inputs": [],
      "name": "symbol",
      "outputs": [
        {
          "internalType": "string",
          "name": "",
          "type": "string"
        }
      ],
      "stateMutability": "view",
      "type": "function"
    },
    {
      "inputs": [],
      "name": "totalSupply",
      "outputs": [
        {
          "internalType": "uint256",
          "name": "",
          "type": "uint256"
        }
      ],
      "stateMutability": "view",
      "type": "function"
    },
    {
      "inputs": [
        {
          "internalType": "address",
          "name": "recipient",
          "type": "address"
        },
        {
          "internalType": "uint256",
          "name": "amount",
          "type": "uint256"
        }
      ],
      "name": "transfer",
      "outputs": [
        {
          "internalType": "bool",
          "name": "",
          "type": "bool"
        }
      ],
      "stateMutability": "nonpayable",
      "type": "function"
    },
    {
      "inputs": [
        {
          "internalType": "address",
          "name": "sender",
          "type": "address"
        },
        {
          "internalType": "address",
          "name": "recipient",
          "type": "address"
        },
        {
          "internalType": "uint256",
          "name": "amount",
          "type": "uint256"
        }
      ],
      "name": "transferFrom",
      "outputs": [
        {
          "internalType": "bool",
          "name": "",
          "type": "bool"
        }
      ],
      "stateMutability": "nonpayable",
      "type": "function"
    },
    {
      "inputs": [],
      "name": "unpause",
      "outputs": [],
      "stateMutability": "nonpayable",
      "type": "function"
    }
  ],
  "bytecode": "0x60806040523480156200001157600080fd5b50604051620022573803806200225783398101604081905262000034916200045a565b8651879087906200004d906005906020850190620002ec565b50805162000063906006906020840190620002ec565b50506007805461ffff191661010060ff89160217905550620000876000856200015b565b6001600160a01b03831615620000b257620000b260008051602062002237833981519152846200015b565b6001600160a01b03821615620000ee57620000ee7f65d7a28e3265b37a6474929f336521b332c1681b933f6cb9f3376673440d862a836200015b565b6001600160a01b038116156200012a576200012a7f3c11d16cbaffd01df69ce1c404f6340ee057498f5f00246190ea54220576a848826200015b565b6200014e60008051602062002237833981519152620001486200019e565b6200015b565b5050505050505062000577565b620001728282620001a260201b620009991760201c565b600082815260016020908152604090912062000199918390620009a3620001b2821b17901c565b505050565b3390565b620001ae8282620001d2565b5050565b6000620001c9836001600160a01b0384166200025c565b90505b92915050565b620001de8282620002ab565b620001ae576000828152602081815260408083206001600160a01b03851684529091529020805460ff19166001179055620002186200019e565b6001600160a01b0316816001600160a01b0316837f2f8788117e7eff1d82e926ec794901d17c78024a50270940304540a733656f0d60405160405180910390a45050565b60006200026a8383620002d4565b620002a257508154600181810184556000848152602080822090930184905584548482528286019093526040902091909155620001cc565b506000620001cc565b6000918252602082815260408084206001600160a01b0393909316845291905290205460ff1690565b60009081526001919091016020526040902054151590565b828054620002fa9062000524565b90600052602060002090601f0160209004810192826200031e576000855562000369565b82601f106200033957805160ff191683800117855562000369565b8280016001018555821562000369579182015b82811115620003695782518255916020019190600101906200034c565b50620003779291506200037b565b5090565b5b808211156200037757600081556001016200037c565b80516001600160a01b0381168114620003aa57600080fd5b919050565b600082601f830112620003c0578081fd5b81516001600160401b0380821115620003dd57620003dd62000561565b6040516020601f8401601f191682018101838111838210171562000405576200040562000561565b60405283825285840181018710156200041c578485fd5b8492505b838310156200043f578583018101518284018201529182019162000420565b838311156200045057848185840101525b5095945050505050565b600080600080600080600060e0888a03121562000475578283fd5b87516001600160401b03808211156200048c578485fd5b6200049a8b838c01620003af565b985060208a0151915080821115620004b0578485fd5b50620004bf8a828b01620003af565b965050604088015160ff81168114620004d6578384fd5b9450620004e66060890162000392565b9350620004f66080890162000392565b92506200050660a0890162000392565b91506200051660c0890162000392565b905092959891949750929550565b6002810460018216806200053957607f821691505b602082108114156200055b57634e487b7160e01b600052602260045260246000fd5b50919050565b634e487b7160e01b600052604160045260246000fd5b611cb080620005876000396000f3fe608060405234801561001057600080fd5b50600436106101da5760003560e01c80635c975abb11610104578063a217fddf116100a2578063d539139311610071578063d5391393146103b6578063d547741f146103be578063dd62ed3e146103d1578063e63ab1e9146103e4576101da565b8063a217fddf14610375578063a457c2d71461037d578063a9059cbb14610390578063ca15c873146103a3576101da565b80638456cb59116100de5780638456cb59146103325780639010d07c1461033a57806391d148541461035a57806395d89b411461036d576101da565b80635c975abb1461030457806370a082311461030c57806379cc67901461031f576101da565b8063282c51f31161017c578063395093511161014b57806339509351146102c35780633f4ba83a146102d657806340c10f19146102de57806342966c68146102f1576101da565b8063282c51f3146102805780632f2ff15d14610288578063313ce5671461029b57806336568abe146102b0576101da565b806318160ddd116101b857806318160ddd146102305780631cf2c7e21461024557806323b872dd1461025a578063248a9ca31461026d576101da565b806301ffc9a7146101df57806306fdde0314610208578063095ea7b31461021d575b600080fd5b6101f26101ed366004611541565b6103ec565b6040516101ff91906115f2565b60405180910390f35b610210610419565b6040516101ff9190611606565b6101f261022b3660046114bd565b6104ab565b6102386104c9565b6040516101ff91906115fd565b6102586102533660046114bd565b6104cf565b005b6101f2610268366004611482565b61052e565b61023861027b3660046114e6565b6105be565b6102386105d3565b6102586102963660046114fe565b6105f7565b6102a361061e565b6040516101ff9190611b6a565b6102586102be3660046114fe565b61062c565b6101f26102d13660046114bd565b61064e565b6102586106a2565b6102586102ec3660046114bd565b6106f4565b6102586102ff3660046114e6565b610746565b6101f261075a565b61023861031a366004611436565b610763565b61025861032d3660046114bd565b61077e565b6102586107cc565b61034d610348366004611520565b61081c565b6040516101ff91906115de565b6101f26103683660046114fe565b61083b565b610210610864565b610238610873565b6101f261038b3660046114bd565b610878565b6101f261039e3660046114bd565b6108f1565b6102386103b13660046114e6565b610905565b61023861091c565b6102586103cc3660046114fe565b610940565b6102386103df366004611450565b61094a565b610238610975565b60006001600160e01b03198216635a05180f60e01b14806104115750610411826109b8565b90505b919050565b60606005805461042890611c09565b80601f016020809104026020016040519081016040528092919081815260200182805461045490611c09565b80156104a15780601f10610476576101008083540402835291602001916104a1565b820191906000526020600020905b81548152906001019060200180831161048457829003601f168201915b5050505050905090565b60006104bf6104b86109dd565b84846109e1565b5060015b92915050565b60045490565b6104fb7f3c11d16cbaffd01df69ce1c404f6340ee057498f5f00246190ea54220576a8486103686109dd565b6105205760405162461bcd60e51b815260040161051790611721565b60405180910390fd5b61052a8282610a95565b5050565b600061053b848484610b86565b6001600160a01b03841660009081526003602052604081208161055c6109dd565b6001600160a01b03166001600160a01b031681526020019081526020016000205490508281101561059f5760405162461bcd60e51b8152600401610517906118b4565b6105b3856105ab6109dd565b8584036109e1565b506001949350505050565b60009081526020819052604090206001015490565b7f3c11d16cbaffd01df69ce1c404f6340ee057498f5f00246190ea54220576a84881565b6106018282610cb0565b600082815260016020526040902061061990826109a3565b505050565b600754610100900460ff1690565b6106368282610cd4565b60008281526001602052604090206106199082610d16565b60006104bf61065b6109dd565b8484600360006106696109dd565b6001600160a01b03908116825260208083019390935260409182016000908120918b168152925290205461069d9190611b78565b6109e1565b6106ce7f65d7a28e3265b37a6474929f336521b332c1681b933f6cb9f3376673440d862a6103686109dd565b6106ea5760405162461bcd60e51b815260040161051790611869565b6106f2610d2b565b565b6107207f9f2df0fed2c77648de5860a4cc508cd0818c85b8b8a1ab4ceeef8d981c8956a66103686109dd565b61073c5760405162461bcd60e51b8152600401610517906117f4565b61052a8282610d99565b6107576107516109dd565b82610a95565b50565b60075460ff1690565b6001600160a01b031660009081526002602052604090205490565b600061078c836103df6109dd565b9050818110156107ae5760405162461bcd60e51b8152600401610517906118fc565b6107c2836107ba6109dd565b8484036109e1565b6106198383610a95565b6107f87f65d7a28e3265b37a6474929f336521b332c1681b933f6cb9f3376673440d862a6103686109dd565b6108145760405162461bcd60e51b815260040161051790611940565b6106f2610e61565b60008281526001602052604081206108349083610ebc565b9392505050565b6000918252602082815260408084206001600160a01b0393909316845291905290205460ff1690565b60606006805461042890611c09565b600081565b600080600360006108876109dd565b6001600160a01b03908116825260208083019390935260409182016000908120918816815292529020549050828110156108d35760405162461bcd60e51b815260040161051790611a55565b6108e76108de6109dd565b858584036109e1565b5060019392505050565b60006104bf6108fe6109dd565b8484610b86565b600081815260016020526040812061041190610ec8565b7f9f2df0fed2c77648de5860a4cc508cd0818c85b8b8a1ab4ceeef8d981c8956a681565b6106368282610ed3565b6001600160a01b03918216600090815260036020908152604080832093909416825291909152205490565b7f65d7a28e3265b37a6474929f336521b332c1681b933f6cb9f3376673440d862a81565b61052a8282610ef2565b6000610834836001600160a01b038416610f77565b60006001600160e01b03198216637965db0b60e01b1480610411575061041182610fc1565b3390565b6001600160a01b038316610a075760405162461bcd60e51b815260040161051790611a11565b6001600160a01b038216610a2d5760405162461bcd60e51b81526004016105179061176c565b6001600160a01b0380841660008181526003602090815260408083209487168084529490915290819020849055517f8c5be1e5ebec7d5bd14f71427d1e84f3dd0314c0f7b2291e5b200ac8c7c3b92590610a889085906115fd565b60405180910390a3505050565b6001600160a01b038216610abb5760405162461bcd60e51b81526004016105179061198b565b610ac782600083610fda565b6001600160a01b03821660009081526002602052604090205481811015610b005760405162461bcd60e51b8152600401610517906116df565b6001600160a01b0383166000908152600260205260408120838303905560048054849290610b2f908490611baf565b90915550506040516000906001600160a01b038516907fddf252ad1be2c89b69c2b068fc378daa952ba7f163c4a11628f55a4df523b3ef90610b729086906115fd565b60405180910390a361061983600084610619565b6001600160a01b038316610bac5760405162461bcd60e51b8152600401610517906119cc565b6001600160a01b038216610bd25760405162461bcd60e51b81526004016105179061166e565b610bdd838383610fda565b6001600160a01b03831660009081526002602052604090205481811015610c165760405162461bcd60e51b8152600401610517906117ae565b6001600160a01b03808516600090815260026020526040808220858503905591851681529081208054849290610c4d908490611b78565b92505081905550826001600160a01b0316846001600160a01b03167fddf252ad1be2c89b69c2b068fc378daa952ba7f163c4a11628f55a4df523b3ef84604051610c9791906115fd565b60405180910390a3610caa848484610619565b50505050565b610cb9826105be565b610cca81610cc56109dd565b610fe5565b6106198383610ef2565b610cdc6109dd565b6001600160a01b0316816001600160a01b031614610d0c5760405162461bcd60e51b815260040161051790611a9a565b61052a8282611049565b6000610834836001600160a01b0384166110cc565b610d3361075a565b610d4f5760405162461bcd60e51b8152600401610517906116b1565b6007805460ff191690557f5db9ee0a495bf2e6ff9c91a7834c1ba4fdd244a5e8aa4e537bd38aeae4b073aa610d826109dd565b604051610d8f91906115de565b60405180910390a1565b6001600160a01b038216610dbf5760405162461bcd60e51b815260040161051790611ae9565b610dcb60008383610fda565b8060046000828254610ddd9190611b78565b90915550506001600160a01b03821660009081526002602052604081208054839290610e0a908490611b78565b90915550506040516001600160a01b038316906000907fddf252ad1be2c89b69c2b068fc378daa952ba7f163c4a11628f55a4df523b3ef90610e4d9085906115fd565b60405180910390a361052a60008383610619565b610e6961075a565b15610e865760405162461bcd60e51b81526004016105179061183f565b6007805460ff191660011790557f62e78cea01bee320cd4e420270b5ea74000d11b0c9f74754ebdbfc544b05a258610d826109dd565b600061083483836111e9565b600061041182611221565b610edc826105be565b610ee881610cc56109dd565b6106198383611049565b610efc828261083b565b61052a576000828152602081815260408083206001600160a01b03851684529091529020805460ff19166001179055610f336109dd565b6001600160a01b0316816001600160a01b0316837f2f8788117e7eff1d82e926ec794901d17c78024a50270940304540a733656f0d60405160405180910390a45050565b6000610f838383611225565b610fb9575081546001818101845560008481526020808220909301849055845484825282860190935260409020919091556104c3565b5060006104c3565b6001600160e01b031981166301ffc9a760e01b14919050565b61061983838361123d565b610fef828261083b565b61052a57611007816001600160a01b0316601461126d565b61101283602061126d565b604051602001611023929190611569565b60408051601f198184030181529082905262461bcd60e51b825261051791600401611606565b611053828261083b565b1561052a576000828152602081815260408083206001600160a01b03851684529091529020805460ff191690556110886109dd565b6001600160a01b0316816001600160a01b0316837ff6391f5c32d9c69d2a47ea670b442974b53935d1edc7fd64eb21e047a839171b60405160405180910390a45050565b600081815260018301602052604081205480156111df5760006110f0600183611baf565b855490915060009061110490600190611baf565b905081811461118557600086600001828154811061113257634e487b7160e01b600052603260045260246000fd5b906000526020600020015490508087600001848154811061116357634e487b7160e01b600052603260045260246000fd5b6000918252602080832090910192909255918252600188019052604090208390555b85548690806111a457634e487b7160e01b600052603160045260246000fd5b6001900381819060005260206000200160009055905585600101600086815260200190815260200160002060009055600193505050506104c3565b60009150506104c3565b600082600001828154811061120e57634e487b7160e01b600052603260045260246000fd5b9060005260206000200154905092915050565b5490565b60009081526001919091016020526040902054151590565b611248838383610619565b61125061075a565b156106195760405162461bcd60e51b815260040161051790611b20565b6060600061127c836002611b90565b611287906002611b78565b67ffffffffffffffff8111156112ad57634e487b7160e01b600052604160045260246000fd5b6040519080825280601f01601f1916602001820160405280156112d7576020820181803683370190505b509050600360fc1b8160008151811061130057634e487b7160e01b600052603260045260246000fd5b60200101906001600160f81b031916908160001a905350600f60fb1b8160018151811061133d57634e487b7160e01b600052603260045260246000fd5b60200101906001600160f81b031916908160001a9053506000611361846002611b90565b61136c906001611b78565b90505b6001811115611400576f181899199a1a9b1b9c1cb0b131b232b360811b85600f16601081106113ae57634e487b7160e01b600052603260045260246000fd5b1a60f81b8282815181106113d257634e487b7160e01b600052603260045260246000fd5b60200101906001600160f81b031916908160001a90535060049490941c936113f981611bf2565b905061136f565b5083156108345760405162461bcd60e51b815260040161051790611639565b80356001600160a01b038116811461041457600080fd5b600060208284031215611447578081fd5b6108348261141f565b60008060408385031215611462578081fd5b61146b8361141f565b91506114796020840161141f565b90509250929050565b600080600060608486031215611496578081fd5b61149f8461141f565b92506114ad6020850161141f565b9150604084013590509250925092565b600080604083850312156114cf578182fd5b6114d88361141f565b946020939093013593505050565b6000602082840312156114f7578081fd5b5035919050565b60008060408385031215611510578182fd5b823591506114796020840161141f565b60008060408385031215611532578182fd5b50508035926020909101359150565b600060208284031215611552578081fd5b81356001600160e01b031981168114610834578182fd5b60007f416363657373436f6e74726f6c3a206163636f756e7420000000000000000000825283516115a1816017850160208801611bc6565b7001034b99036b4b9b9b4b733903937b6329607d1b60179184019182015283516115d2816028840160208801611bc6565b01602801949350505050565b6001600160a01b0391909116815260200190565b901515815260200190565b90815260200190565b6000602082528251806020840152611625816040850160208701611bc6565b601f01601f19169190910160400192915050565b6020808252818101527f537472696e67733a20686578206c656e67746820696e73756666696369656e74604082015260600190565b60208082526023908201527f45524332303a207472616e7366657220746f20746865207a65726f206164647260408201526265737360e81b606082015260800190565b60208082526014908201527314185d5cd8589b194e881b9bdd081c185d5cd95960621b604082015260600190565b60208082526022908201527f45524332303a206275726e20616d6f756e7420657863656564732062616c616e604082015261636560f01b606082015260800190565b6020808252603890820152600080516020611c5b83398151915260408201527f68617665206275726e657220726f6c6520746f206275726e0000000000000000606082015260800190565b60208082526022908201527f45524332303a20617070726f766520746f20746865207a65726f206164647265604082015261737360f01b606082015260800190565b60208082526026908201527f45524332303a207472616e7366657220616d6f756e7420657863656564732062604082015265616c616e636560d01b606082015260800190565b6020808252603890820152600080516020611c5b83398151915260408201527f68617665206d696e74657220726f6c6520746f206d696e740000000000000000606082015260800190565b60208082526010908201526f14185d5cd8589b194e881c185d5cd95960821b604082015260600190565b6020808252603b90820152600080516020611c5b83398151915260408201527f686176652070617573657220726f6c6520746f20756e70617573650000000000606082015260800190565b60208082526028908201527f45524332303a207472616e7366657220616d6f756e74206578636565647320616040820152676c6c6f77616e636560c01b606082015260800190565b60208082526024908201527f45524332303a206275726e20616d6f756e74206578636565647320616c6c6f77604082015263616e636560e01b606082015260800190565b6020808252603990820152600080516020611c5b83398151915260408201527f686176652070617573657220726f6c6520746f20706175736500000000000000606082015260800190565b60208082526021908201527f45524332303a206275726e2066726f6d20746865207a65726f206164647265736040820152607360f81b606082015260800190565b60208082526025908201527f45524332303a207472616e736665722066726f6d20746865207a65726f206164604082015264647265737360d81b606082015260800190565b60208082526024908201527f45524332303a20617070726f76652066726f6d20746865207a65726f206164646040820152637265737360e01b606082015260800190565b60208082526025908201527f45524332303a2064656372656173656420616c6c6f77616e63652062656c6f77604082015264207a65726f60d81b606082015260800190565b6020808252602f908201527f416363657373436f6e74726f6c3a2063616e206f6e6c792072656e6f756e636560408201526e103937b632b9903337b91039b2b63360891b606082015260800190565b6020808252601f908201527f45524332303a206d696e7420746f20746865207a65726f206164647265737300604082015260600190565b6020808252602a908201527f45524332305061757361626c653a20746f6b656e207472616e736665722077686040820152691a5b19481c185d5cd95960b21b606082015260800190565b60ff91909116815260200190565b60008219821115611b8b57611b8b611c44565b500190565b6000816000190483118215151615611baa57611baa611c44565b500290565b600082821015611bc157611bc1611c44565b500390565b60005b83811015611be1578181015183820152602001611bc9565b83811115610caa5750506000910152565b600081611c0157611c01611c44565b506000190190565b600281046001821680611c1d57607f821691505b60208210811415611c3e57634e487b7160e01b600052602260045260246000fd5b50919050565b634e487b7160e01b600052601160045260246000fdfe45524332304d696e7465724275726e6572446563696d616c733a206d75737420a2646970667358221220ff4366eff48ddf4bde81cb4aa5056b9a1f7f1f41f5e4070a3236f834f068f76664736f6c634300080000339f2df0fed2c77648de5860a4cc508cd0818c85b8b8a1ab4ceeef8d981c8956a6",
  "linkReferences": {},
  "deployedLinkReferences": {}
}