{
  "_format": "hh-sol-artifact-1",
  "contractName": "Counter",
  "sourceName": "contracts/Counter.sol",
  "abi": [
    {
      "inputs": [],
      "stateMutability": "nonpayable",
      "type": "constructor"
    },
    {
      "anonymous": false,
      "inputs": [
        {
          "indexed": false,
          "internalType": "uint256",
          "name": "newCount",
          "type": "uint256"
        }
      ],
      "name": "CountIncremented",
      "type": "event"
    },
    {
      "inputs": [],
      "name": "count",
      "outputs": [
        {
          "internalType": "uint256",
          "name": "",
          "type": "uint256"
        }
      ],
      "stateMutability": "view",
      "type": "function"
    },
    {
      "inputs": [],
      "name": "getCount",
      "outputs": [
        {
          "internalType": "uint256",
          "name": "",
          "type": "uint256"
        }
      ],
      "stateMutability": "view",
      "type": "function"
    },
    {
      "inputs": [],
      "name": "increment",
      "outputs": [
        {
          "internalType": "uint256",
          "name": "",
          "type": "uint256"
        }
      ],
      "stateMutability": "nonpayable",
      "type": "function"
    }
  ],
  "bytecode": "0x6080604052348015600f57600080fd5b50600080819055506101d8806100266000396000f3fe608060405234801561001057600080fd5b50600436106100415760003560e01c806306661abd14610046578063a87d942c14610064578063d09de08a14610082575b600080fd5b61004e6100a0565b60405161005b9190610124565b60405180910390f35b61006c6100a6565b6040516100799190610124565b60405180910390f35b61008a6100af565b6040516100979190610124565b60405180910390f35b60005481565b60008054905090565b600060016000808282546100c3919061016e565b925050819055507f420680a649b45cbb7e97b24365d8ed81598dce543f2a2014d48fe328aa47e8bb6000546040516100fb9190610124565b60405180910390a1600054905090565b6000819050919050565b61011e8161010b565b82525050565b60006020820190506101396000830184610115565b92915050565b7f4e487b7100000000000000000000000000000000000000000000000000000000600052601160045260246000fd5b60006101798261010b565b91506101848361010b565b925082820190508082111561019c5761019b61013f565b5b9291505056fea26469706673582212209fb26491ef5f2cc0d6bc78280992cb3676945a002775613fabc2f7f6d5ebe94164736f6c634300081c0033",
  "linkReferences": {},
  "deployedLinkReferences": {}
}