{
  "_format": "hh-sol-artifact-1",
  "contractName": "Erc20CreatorCaller",
  "sourceName": "solidity/precompiles/staking/testdata/Erc20CreatorCaller.sol",
  "abi": [
    {
      "inputs": [
        {
          "internalType": "string",
          "name": "name",
          "type": "string"
        },
        {
          "internalType": "string",
          "name": "symbol",
          "type": "string"
        },
        {
          "internalType": "uint256",
          "name": "totalSupply",
          "type": "uint256"
        },
        {
          "internalType": "uint8",
          "name": "decimals",
          "type": "uint8"
        }
      ],
      "name": "callCreateErc20",
      "outputs": [
        {
          "internalType": "address",
          "name": "",
          "type": "address"
        }
      ],
      "stateMutability": "nonpayable",
      "type": "function"
    }
  ],
  "bytecode": "0x6080604052348015600f57600080fd5b506105338061001f6000396000f3fe608060405234801561001057600080fd5b506004361061002b5760003560e01c80636e30282514610030575b600080fd5b61004a600480360381019061004591906102b9565b610060565b6040516100579190610399565b60405180910390f35b600061080673ffffffffffffffffffffffffffffffffffffffff1663f547ecd6868686866040518563ffffffff1660e01b81526004016100a39493929190610451565b6020604051808303816000875af11580156100c2573d6000803e3d6000fd5b505050506040513d601f19601f820116820180604052508101906100e691906104d0565b9050949350505050565b6000604051905090565b600080fd5b600080fd5b600080fd5b600080fd5b6000601f19601f8301169050919050565b7f4e487b7100000000000000000000000000000000000000000000000000000000600052604160045260246000fd5b6101578261010e565b810181811067ffffffffffffffff821117156101765761017561011f565b5b80604052505050565b60006101896100f0565b9050610195828261014e565b919050565b600067ffffffffffffffff8211156101b5576101b461011f565b5b6101be8261010e565b9050602081019050919050565b82818337600083830152505050565b60006101ed6101e88461019a565b61017f565b90508281526020810184848401111561020957610208610109565b5b6102148482856101cb565b509392505050565b600082601f83011261023157610230610104565b5b81356102418482602086016101da565b91505092915050565b6000819050919050565b61025d8161024a565b811461026857600080fd5b50565b60008135905061027a81610254565b92915050565b600060ff82169050919050565b61029681610280565b81146102a157600080fd5b50565b6000813590506102b38161028d565b92915050565b600080600080608085870312156102d3576102d26100fa565b5b600085013567ffffffffffffffff8111156102f1576102f06100ff565b5b6102fd8782880161021c565b945050602085013567ffffffffffffffff81111561031e5761031d6100ff565b5b61032a8782880161021c565b935050604061033b8782880161026b565b925050606061034c878288016102a4565b91505092959194509250565b600073ffffffffffffffffffffffffffffffffffffffff82169050919050565b600061038382610358565b9050919050565b61039381610378565b82525050565b60006020820190506103ae600083018461038a565b92915050565b600081519050919050565b600082825260208201905092915050565b60005b838110156103ee5780820151818401526020810190506103d3565b60008484015250505050565b6000610405826103b4565b61040f81856103bf565b935061041f8185602086016103d0565b6104288161010e565b840191505092915050565b61043c8161024a565b82525050565b61044b81610280565b82525050565b6000608082019050818103600083015261046b81876103fa565b9050818103602083015261047f81866103fa565b905061048e6040830185610433565b61049b6060830184610442565b95945050505050565b6104ad81610378565b81146104b857600080fd5b50565b6000815190506104ca816104a4565b92915050565b6000602082840312156104e6576104e56100fa565b5b60006104f4848285016104bb565b9150509291505056fea26469706673582212200c942b88bfd45bea092f5e94d67fb0bedf502c29e4f290016ff65494c5564da664736f6c634300081c0033",
  "linkReferences": {},
  "deployedLinkReferences": {}
}